:020000040800F2
:100000009055002061020008ED3D0008E13A00082B
:10001000E93D0008AD080008995E000800000000F6
:10002000000000000000000000000000A101000826
:100030005316000800000000FD010008715600087A
:100040007B0200087B0200087B0200087B0200089C
:100050007B0200087B0200087B0200087B0200088C
:100060007B0200087B0200087B02000839150008AB
:100070007B0200087B0200087B0200087B0200086C
:100080007B0200087B0200087B020008C108000810
:10009000B10800087B0200087B0200087B02000810
:1000A0007B0200087B0200087B0200087B0200083C
:1000B0007B0200087B0200087B0200087B0200082C
:1000C0007B0200087B0200087B0200087B0200081C
:1000D0007B0200087B0200087B020008895E0008A2
:1000E0007B0200087B0200087B0200087B020008FC
:1000F0007B0200087B0200087B0200087B020008EC
:100100007B0200087B0200087B0200087B020008DB
:100110007B020008395800087B020008515700088C
:100120007B0200087B0200087B0200087B020008BB
:100130007B0200087B0200087B020008E10800083F
:10014000D10800087B0200087B0200087B0200083F
:100150007B0200087B0200087B0200087B0200088B
:100160007B0200087B0200087B0200087B0200087B
:100170007B0200087B0200087B02000800000000F0
:100180007B0200087B020008DFF810D000F07CFB47
:100190000048004769650008AFF3008090550020D3
:1001A0002C4B19680868B0E8F04F80F30988BFF35A
:1001B0006F8F4FF0000080F311887047000000003F
:1001C00008480068006880F308884FF0000080F35A
:1001D000148862B661B6BFF34F8FBFF36F8F00DF35
:1001E00000BF00BF08ED00E0DFF80C00016841F43B
:1001F00070010160704700BF88ED00E0EFF30980F7
:10020000BFF36F8F134B1A681EF0100F08BF20ED5D
:10021000108A20E9F04F106009B44FF0500080F3CD
:100220001188BFF34F8FBFF36F8F07F0CBFC4FF0F8
:10023000000080F3118809BC19680868B0E8F04F25
:100240001EF0100F08BFB0EC108A80F30988BFF3CE
:100250006F8F704748000020EFF305807047000063
:100260000648804706480047FEE7FEE7FEE7FEE750
:10027000FEE7FEE7FEE7FEE7FEE7FEE73D57000884
:10028000890100082DE9F05F0546002092469B4653
:1002900088460646814640241BE02846414647469C
:1002A000224600F03AFA53465A46C01A914110D3FA
:1002B00011461846224600F021FA2D1A67EB010874
:1002C0004F4622460120002100F018FA17EB0009E2
:1002D0004E41201EA4F10104DFDC484631462A4687
:1002E0004346BDE8F09F40EA01039B0703D009E0C5
:1002F00008C9121F08C0042AFAD203E011F8013B12
:1003000000F8013B521EF9D27047D2B201E000F86A
:10031000012B491EFBD270470022F6E710B51346A9
:100320000A4604461946FFF7F0FF204610BD2DE9A6
:10033000FE4F804681EA0300C00F0C46009021F07A
:10034000004123F00045B8EB0200A94105D2404628
:10035000214690461C460B46024623F000401043BF
:1003600047D0270DC7F30A00C3F30A510290401A81
:10037000019040286BDAC3F3130040F4801B00980F
:10038000924620B10023D2EB030A63EB0B0B0198DA
:100390005946C0F14002504600F0B0F906460D46FD
:1003A00050465946019A00F0C8F910EB0800614127
:1003B000002487EA115284EAE7731A4340D0009A76
:1003C00062B3019A012A4FEA075215DC001B61EB68
:1003D00002014FF0004202EA0752CDE90042001C40
:1003E00041F5801132462B4600F0FFF903B0BDE81D
:1003F000F08F40462146F9E7001B61EB0201001C2B
:1004000041F5801300185B412018A2F5001747EB57
:10041000030140EAD570B6196D4111E06D084FEA4D
:10042000360645EAC0754FEA0752001B61EB020130
:10043000001C41F5801149084FEA30000019514174
:1004400032462B4603B0BDE8F04F00F0BFB900982C
:10045000012240000023D0EB020263EBE07300981E
:1004600021464FEAE074B8EB000061EB0401E9E7D4
:1004700083F000435BE781F0004158E72DE9FE4F30
:1004800081EA030404F0004421F0004100944FF09D
:10049000000B23F0004350EA01045ED052EA03044B
:1004A0005BD0C3F30A54C1F30A552C44A4F2F334CD
:1004B0000194A0FB0254C1F3130141F48011C3F372
:1004C000130343F4801301FB024400FB034E840A30
:1004D000970A44EA815447EA8357A4FB07680295C8
:1004E0008D0A05FB07854FEA932C04FB0C54270566
:1004F000029D4FEA065847EA1637B5EB08056EEB42
:10050000070C870E920E47EA811742EA8312A7FB77
:100510000201B6EB0B0164EB00042B0D43EA0C3334
:100520005E1844EB1C50DA465146E7FB0201C5F366
:1005300013044FEA0B3343EA14534FEA0432019C8D
:1005400043EA0603A4F10C040294009CCDE900B434
:1005500000F04BF903B0BDE8F08F00200146F9E749
:100560002DE9F04D81EA030404F0004B21F0004531
:1005700014464FF0000A23F0004150EA050220D053
:1005800054EA01021DD0C5F30A570246C5F313030E
:10059000C1F31300C1F30A5640F4801543F48013ED
:1005A000A7EB0608101BD64608F2FD3873EB0500D2
:1005B00002D308F1010801E092185B41B8F1000F85
:1005C00003DA00200146BDE8F08D00204FF48011D1
:1005D000064684460EE0171B73EB050705D3121B76
:1005E00063EB050306434CEA010C49084FEA30006F
:1005F00092185B4150EA0107EDD152EA030012D094
:1006000082EA040083EA0501084305D0101BAB41D0
:1006100006D20122002306E000224FF0004302E050
:100620006FF0010253101AEB06004CEB085110EB6F
:100630000A0041EB0B01BDE8F04D00F0C7B800F037
:10064000004230F000400AD0C10D01F56071C0F3E6
:10065000160042EA0151C2084007114370470020CA
:100660000146704730B5041E71F1000404DB4FF001
:100670000044404264EB0101141E73F1000405DBE9
:100680001C464FF00043524263EB04038B4208BF09
:10069000824230BD30B5041E71F1000404DB4FF01E
:1006A0000044404264EB0101141E73F1000405DBB9
:1006B0001C464FF00043524263EB0403994208BFCB
:1006C000904230BD01F0004330B421F0004150EAC7
:1006D000010206D00A0DA2F56072C1F31301002ACF
:1006E00002DC30BC00207047440F44EAC104C10062
:1006F000E01830BC00EBC25000F031B8202A04DB17
:10070000203A00FA02F1002070479140C2F1200324
:1007100020FA03F3194390407047202A04DB203A63
:1007200021FA02F00021704721FA02F3D040C2F111
:1007300020029140084319467047202A06DBCB1758
:10074000203A41FA02F043EAE07306E041FA02F38C
:10075000D040C2F120029140084319467047002959
:10076000A8BF7047401C490008BF20F00100704737
:1007700010B4B0FA80FC00FA0CF050EA010404BF97
:1007800010BC704749B1CCF1200421FA04F411FAED
:100790000CF118BF012121430843A3EB0C01CB1D31
:1007A0004FEA00614FEA102042BF002010BC7047A2
:1007B00000EBC35010440029A4BF10BC7047401C7C
:1007C000490008BF20F0010010BC704710B5141E8E
:1007D00073F1000408DA401C41F1000192185B41FA
:1007E0001A4301D120F0010010BD2DE9F04D9246D1
:1007F0009B4611B1B1FA81F202E0B0FA80F22032E8
:100800009046FFF77BFF04460F4640EA0A0041EAA4
:100810000B0153465A46084313D0114653EA0100D0
:1008200019D0C8F140025046FFF777FF05460E4643
:10083000504659464246FFF761FF084305D0012064
:1008400004E020463946BDE8F08D0020054346EA25
:10085000E0762C4337430A986305E40AA0EB0800CE
:100860000022FD0A44EA47540A3002D5002001461E
:10087000E9E7010510196941DDE9084500196941F9
:10088000BDE8F04DA2E70000064C074D06E0E06829
:1008900040F0010394E8070098471034AC42F6D3C7
:1008A000FFF776FCD08A0008F08A000800BFFEE758
:1008B00010B5024801F0E2F810BD000084050020E8
:1008C00010B5024801F0DAF810BD000084050020E0
:1008D00010B5024801F0D2F810BD0000AC050020B0
:1008E00010B5024801F0CAF810BD0000AC050020A8
:1008F0007047000000B52DED068B83B0D84890ED11
:10090000081AF0EE410A90ED001AB0EE410A01A873
:100910009FEDD41B06F01AFDD14890ED010AB5EE0B
:10092000C00AF1EE10FA71DD90ED010ADFEDCF0A99
:1009300020EE200AF0EE000A80EE201AF0EE418A46
:10094000B0EE680A05F000FCDFEDC90A20EE208A4F
:10095000C34890ED010AF0EE000A80EE201AB7EECF
:10096000000A30EE410A30EE080AD0ED0A0AB0EE75
:10097000001A60EE810A60EE200A90ED010AB7EEDF
:10098000001AB4EEC10AF1EE10FA0ADB90ED010A8A
:10099000B0EE001AB4EEC10AF1EE10FA01D2012055
:1009A00000E0002000EE100AB8EEC00A20EE800A37
:1009B000AB4890ED011AF0EE001AC1EE210A70EE7C
:1009C000C80A90ED0A1AF0EE001A21EE211A20EE64
:1009D000811AD0ED010AF5EEC00AF1EE10FA0ADB39
:1009E000D0ED010AF7EE001AF4EEE10AF1EE10FA8A
:1009F00001D2012000E0002000EE900AF8EEE00AAB
:100A000001EE200AB0EE408A02E0FFE79FED998AEE
:100A100018EE100AFFF713FE41EC1A0B9FED960B30
:100A200053EC102BFFF724FD41EC190B8C4890ED93
:100A3000081ADDED010AF6EE001A41EEC10AB0EE29
:100A4000600A01A902A8B0EE491AF0EE691A03F093
:100A500049F89DED020ADFED8A0A20EE200A894856
:100A600080ED000A9DED010ADFED850A20EE200AE7
:100A700080ED010A7A4890ED091AF0EE410A90EDF6
:100A8000061AB0EE410A01A89FED761B06F05EFC47
:100A90007348D0ED090A9DED010AB6EE001A01EE89
:100AA000600AB0EE408A90ED0B1AF0EE410A90ED2C
:100AB000071AB0EE410A01A89FED6A1B06F0A8FCD8
:100AC0000198FFF7BCFD41EC1A0B9FED6B0B53EC4B
:100AD000102BFFF7CDFC41EC190B02A901A8B0EED9
:100AE000491AF0EE691AB0EE480A02F0FBFF9DEDDC
:100AF000010ADFED630A20EE200A624880ED060A53
:100B00009DED020ADFED5E0A20EE200A80ED070A65
:100B1000534890ED091AF0EE410A90ED041AB0EE38
:100B2000410A01A89FED4F1B06F010FC4C48D0ED88
:100B3000090A9DED010AB6EE001A01EE600AB0EE58
:100B4000408A90ED0A1AF0EE410A90ED051AB0EED7
:100B5000410A01A89FED431B06F05AFC0198FFF7DC
:100B60006EFD41EC1A0B9FED440B53EC102BFFF77D
:100B70007FFC41EC190B02A901A8B0EE491AF0EE76
:100B8000691AB0EE480A02F0ADFF9DED020AB1EE1F
:100B9000400ADFED3B0A20EE200A3A4880ED040AC5
:100BA0009DED010AB1EE400ADFED350A20EE200A84
:100BB00080ED050A2A4890ED081AF0EE410A90ED02
:100BC000021AB0EE410A01A89FED261B06F0BEFBFB
:100BD0002348D0ED080A9DED010AB6EE001A01EE99
:100BE000600AB0EE408A90ED0B1AF0EE410A90EDEB
:100BF000031AB0EE410A01A89FED1A1B06F008FC8B
:100C00000198FFF71CFD41EC1A0B9FED1B0B53ECF9
:100C1000102BFFF72DFC41EC190B02A901A8B0EE37
:100C2000491AF0EE691AB0EE480A02F05BFF9DED3A
:100C3000010AB1EE400ADFED120A20EE200A114847
:100C400080ED020A9DED020AB1EE400ADFED0C0ACA
:100C500020EE200A80ED030A03B0BDEC068B00BD38
:100C60003C5100200000000000000040DB0F494123
:100C700083F9A23D00000000000000000000694070
:100C800035FA8E3C6C5100200FB430B593B0044659
:100C90000D46012C04D0022C06D0032C0CD107E009
:100CA000FC201449C8710BE0FD201249C87107E00F
:100CB000FE201049C87103E013B030BC5DF814FB8E
:100CC00000BF202218A909A8FFF70DFB9DF880009E
:100CD0008DF844002198129024220AA96846FFF753
:100CE00002FB2A4608210348099B00F00DFC00BFC7
:100CF000E2E70000C80000200FB42DED060B2DE93F
:100D0000F0432DED068B93B0B0EE40AAB0EE608AB2
:100D1000F0EE418AB0EE619AF0EE429A81469FED84
:100D20006D0AB4EEC0AAF1EE10FA02D89FED690A7E
:100D30000BE09FED690AB4EEC0AAF1EE10FA02DBF7
:100D40009FED650A01E0B0EE4A0AB0EE40AA9FEDC1
:100D5000630AB4EEC08AF1EE10FA02D89FED5F0A82
:100D60000BE09FED5F0AB4EEC08AF1EE10FA02DBF1
:100D70009FED5B0A01E0B0EE480AB0EE408AF5EE66
:100D8000C08AF1EE10FA02D89FED560A0BE09FEDF3
:100D9000560AF4EEC08AF1EE10FA02DB9FED520A19
:100DA00001E0B0EE680AF0EE408AB5EEC09AF1EECE
:100DB00010FA02D89FED4B0A0BE0B1EE040AB4EE34
:100DC000C09AF1EE10FA02DBB1EE040A01E0B0EED7
:100DD000490AB0EE409ABBEE020AF4EEC09AF1EE78
:100DE00010FA02D8BBEE020A0BE0B3EE020AF4EEF0
:100DF000C09AF1EE10FA02DBB3EE020A01E0B0EEA7
:100E0000690AF0EE409A10209FED331ADFED310AA7
:100E1000B0EE4A0A05F08EFB04460C209FED301A16
:100E2000DFED2E0AB0EE480A05F084FB05460C20E3
:100E30009FED2D1ADFED2B0AB0EE680A05F07AFB64
:100E400006460C20B1EE041ADFED260AB0EE490A80
:100E500005F070FB07460C20B3EE021AFBEE020A07
:100E6000B0EE690A05F066FB804620121F49087043
:100E70004C70C5F3071088702807000E40EA262042
:100E8000C8700E71C7F3071048713807000E40EAAA
:100E90002820887181F80780202227A909A8FFF758
:100EA00022FA9DF8BC008DF844003098129024225C
:100EB0000AA96846FFF717FA4A4608210B48099B1A
:100EC00000F022FB13B0BDEC068BBDE8F0035DF82B
:100ED0002CFB00000000BFC20000BF42000034C273
:100EE00000003442000000000000FA43D00000205F
:100EF00000B593B000201AE0FF21FE4A02EB001279
:100F000011709FEDFD0AFB4901EB001181ED010A13
:100F10009FEDF90AF74901EB001181ED020A9FEDFF
:100F2000F60AF44901EB001181ED030A401C082880
:100F3000E2DB00BF0020F14908702022F04909A837
:100F4000FFF7D1F9EE4890F820008DF84400EC4806
:100F5000406A129020220BA96846FFF7C4F90121CC
:100F60000320DDE90923FFF78FFE0A2001F09AFB39
:100F70002022E34909A8FFF7B6F9E14890F82000DC
:100F80008DF84400DE48406A129020220BA9684682
:100F9000FFF7A9F901210846DDE90923FFF774FEEF
:100FA0000A2001F07FFBD3480078012805D1D348FF
:100FB000007840F00100D14908702022D04909A8EA
:100FC000FFF791F9CE4890F820008DF84400CC4806
:100FD000406A129020220BA96846FFF784F902218B
:100FE0000320DDE90923FFF74FFE0A2001F05AFB39
:100FF0002022C34909A8FFF776F9C14890F82000DC
:101000008DF84400BE48406A129020220BA9684621
:10101000FFF769F902210120DDE90923FFF734FE1A
:101020000A2001F03FFBB348007C022805D1B348F9
:10103000007840F00200B14908702022B04909A8A8
:10104000FFF751F9AE4890F820008DF84400AC4805
:10105000406A129020220BA96846FFF744F9032149
:101060000846DDE90923FFF70FFE0A2001F01AFB0D
:101070002022A34909A8FFF736F9A14890F82000DB
:101080008DF844009E48406A129020220BA96846C1
:10109000FFF729F903210120DDE90923FFF7F4FD1A
:1010A0000A2001F0FFFA934890F82000032805D1A8
:1010B0009248007840F0040090490870202290493E
:1010C00009A8FFF710F98E4890F820008DF8440029
:1010D0008B48406A129020220BA96846FFF703F95B
:1010E00004210320DDE90923FFF7CEFD0A2001F0EA
:1010F000D9FA2022824909A8FFF7F5F8804890F82C
:1011000020008DF844007E48406A129020220BA9EE
:101110006846FFF7E8F804210120DDE90923FFF71D
:10112000B3FD0A2001F0BEFA724890F8300004289E
:1011300005D17248007840F00800704908702022FC
:10114000704909A8FFF7CFF86E4890F820008DF895
:1011500044006C48406A129020220BA96846FFF7B1
:10116000C2F805210320DDE90923FFF78DFD0A20E0
:1011700001F098FA2022634909A8FFF7B4F8614802
:1011800090F820008DF844005E48406A12902022BA
:101190000BA96846FFF7A7F805210120DDE909231F
:1011A000FFF772FD0A2001F07DFA524890F84000E6
:1011B000052805D15148007840F010004F490870CB
:1011C0002022504909A8FFF78EF84E4890F82000D9
:1011D0008DF844004B48406A129020220BA96846C3
:1011E000FFF781F806210320DDE90923FFF74CFD15
:1011F0000A2001F057FA2022424909A8FFF773F8A4
:10120000404890F820008DF844003E48406A129013
:1012100020220BA96846FFF766F806210120DDE9C8
:101220000923FFF731FD0A2001F03CFA314890F81C
:101230005000062805D13148007840F020002F49A1
:10124000087020222F4909A8FFF74DF82D4890F883
:1012500020008DF844002B48406A129020220BA9F0
:101260006846FFF740F807210320DDE90923FFF76F
:101270000BFD0A2001F016FA2022224909A8FFF7E7
:1012800032F8204890F820008DF844001D48406A4C
:10129000129020220BA96846FFF725F807210120AC
:1012A000DDE90923FFF7F0FC0A2001F0FBF9114802
:1012B00090F86000072805D11048007840F0400001
:1012C0000E49087020220F4909A8FFF70CF80D48B5
:1012D00090F820008DF844000A48406A12902022BD
:1012E0000BA96846FEF7FFFF08210320DDE909236B
:1012F0000AE000002C50002000000000E000002068
:1013000084050020AC050020FFF7BEFC0A2001F098
:10131000C9F92022154909A8FEF7E5FF134890F8FE
:1013200020008DF844001148406A129020220BA939
:101330006846FEF7D8FF08210120DDE90923FFF701
:10134000A3FC0A2001F0AEF9094890F870000828C3
:1013500005D10848007840F080000649087005482B
:101360000078FF287FF4E6AD13B000BDAC05002087
:101370002C500020E000002000B593B020226049EE
:1013800009A8FEF7B0FF5E4890F820008DF84400F1
:101390005B48406A129020220BA96846FEF7A3FF23
:1013A00001210846DDE90923FFF76EFC202254499C
:1013B00009A8FEF798FF524890F820008DF84400E5
:1013C0004F48406A129020220BA96846FEF78BFF17
:1013D00002210120DDE90923FFF756FC20224849BC
:1013E00009A8FEF780FF464890F820008DF84400D9
:1013F0004348406A129020220BA96846FEF773FF0B
:1014000003210120DDE90923FFF73EFC20223C49AE
:1014100009A8FEF768FF3A4890F820008DF84400CC
:101420003748406A129020220BA96846FEF75BFFFE
:1014300004210120DDE90923FFF726FC20223149A0
:1014400009A8FEF750FF2F4890F820008DF84400BF
:101450002C48406A129020220BA96846FEF743FFF1
:1014600005210120DDE90923FFF70EFC2022254993
:1014700009A8FEF738FF234890F820008DF84400B3
:101480002048406A129020220BA96846FEF72BFFE5
:1014900006210120DDE90923FFF7F6FB2022194987
:1014A00009A8FEF720FF174890F820008DF84400A7
:1014B0001448406A129020220BA96846FEF713FFD9
:1014C00007210120DDE90923FFF7DEFB20220D497A
:1014D00009A8FEF708FF0B4890F820008DF844009B
:1014E0000848406A129020220BA96846FEF7FBFECE
:1014F00008210120DDE90923FFF7C6FB13B000BD79
:1015000084050020AC0500200FB470B588B00446F7
:101510000D4616465CB155B1029600200490059028
:10152000069501AB224602A90FA800F0ABF808B05F
:1015300070BC5DF814FB000010B5024800F0D2FE4C
:1015400010BD00005C060020014608781038182302
:10155000B0FBF3F20848805CC865032A05D9086827
:101560006FF30900001D886503E008686FF3090048
:101570008865886D704700005C8A0008014600207D
:101580008A6A8B69CBB932B1012A0DD0022A03D005
:10159000032A10D10EE000BFCB6A03F08073B3F1D1
:1015A000807F00D1012007E0CB6AB3F1C07F00D17A
:1015B000012001E000E000BF34E08B69B3F5005F7B
:1015C0001AD132B1012A07D0022A03D0032A11D13D
:1015D0000AE000BF01200EE0CB6A03F08073B3F194
:1015E000807F00D1012006E0CB6AB3F1C07F00D13B
:1015F000012000E000BF15E032B1012A05D0022A27
:1016000004D0032A0CD103E000BF00BF012008E092
:10161000CB6A03F08073B3F1807F00D1012000E03A
:1016200000BF00BF704730B50468246824F48024EC
:1016300005682C60046863608468402C04D10468E9
:10164000A2600468E16003E00468A1600468E260ED
:1016500030BD704772B600BFFEE710B5024692F883
:101660002030012B01D0022B06D1106840690843BD
:1016700014686061002010BD506A40F48020506200
:101680000120F8E7F0B504460D461E4694F8207098
:1016900020688368A86800B900E000BF012F01D06E
:1016A000022F7CD103F0806030B903F0006018B9DC
:1016B00003F08050002873D0C3F30161022905D9DB
:1016C000606A40F4000060620120F0BD01208840A3
:1016D0003060A86860B9B5F800C0E86840EA4C5CC2
:1016E000206800F5C07000EB0110C0F800C00FE0EA
:1016F000D5E901C040EACC00D5F80CC040EA0C00A6
:10170000D4F800C00CF5C07C0CEB011CCCF8000038
:10171000D5F810C0206800F5C07000EB0110C0F8CB
:1017200004C0287D01280ED1206800F5C07000EBB0
:101730000110406840F4807C206800F5C07000EB28
:101740000110C0F804C0D079000692F806C040EA43
:101750000C4092F805C040EA0C2C10794CEA000CC1
:10176000206800F5C07000EB0110C0F80CC0D07804
:10177000000692F802C040EA0C4092F801C040EA2C
:101780000C2092F800C040EA0C00D4F800C00CF520
:10179000C07C0CEB011CCCF80800206801E016E0CE
:1017A0000FE000F5C07000EB0110006840F0010C84
:1017B000206800F5C07000EB0110C0F800C00020E8
:1017C00083E7606A40F40010606201207DE7606A90
:1017D00040F480206062012077E70000F0B5044605
:1017E0000A46216894F82050012D01D0022D7ED1A7
:1017F000424901F50071086840F00100086008687E
:1018000020F47C5008600868566A40EA06200860A8
:10181000107D00F01F06012000FA06F3C869984306
:10182000C861A1F50071D069C8B9D1F80C0298431C
:10183000C1F80C02908880B2968940EA064601F50C
:101840001070576940F83760108880B2168940EAF6
:10185000064601F51070576900EBC7004660D06975
:10186000012819D1D1F80C021843C1F80C02908854
:1018700080B2168840EA064601F51070576940F8B4
:101880003760908980B2168940EA064601F51070EB
:10189000576900EBC7004660906928B9D1F8040287
:1018A0009843C1F8040204E0D1F804021843C1F8D7
:1018B0000402106928B9D1F814029843C1F814023F
:1018C00004E0D1F814021843C1F81402106A012888
:1018D00004D1D1F81C021843C1F81C02D1F800024F
:1018E00020F00100C1F800020020F0BDFFE7606AAF
:1018F00040F4802060620120F7E7000000640040AF
:10190000704770B5044694F82050012D01D0022D87
:101910007DD151B92068C06800F0030080B9606AC9
:1019200040F400106062012070BD2068006900F082
:10193000030028B9606A40F4001060620120F3E7F8
:10194000206800F5D87000EB0110006800F004007A
:101950009060906840B9206800F5D87000EB0110E5
:101960000068400D106007E0206800F5D87000EBBB
:1019700001100068C0085060206800F5D87000EBC6
:101980000110006800F00200D060206800F5D870F7
:1019900000EB0110406800F00F001061206800F5B6
:1019A000D87000EB0110406800F47F40000A90619D
:1019B000206800F5D87000EB01104068000C506101
:1019C000206800F5D87000EB01108068187020685E
:1019D00000F5D87000EB0110806800F47F40000A29
:1019E0005870206800F5D87000EB0110806800F492
:1019F0007F00000C9870206800F5D87000EB011093
:101A00008068000ED870206800F5D87000E02FE0E4
:101A100000EB0110C0681871206800F5D87000EB69
:101A20000110C06800F47F40000A5871206800F57A
:101A3000D87000EB0110C06800F47F00000C9871B2
:101A4000206800F5D87000EB0110C068000ED87156
:101A500031B92068C06840F020002668F06005E0D9
:101A60002068006940F020002668306100205BE7B4
:101A7000606A40F480206062012055E72DE9F05F44
:101A800004460025206846692068D0F80490206844
:101A900087682068D0F80CA02068D0F810B02068C3
:101AA000D0F8188006F00100002855D007F001009A
:101AB000C0B101202168886007F0020018B12046FB
:101AC00000F09FFB0EE007F0040010B145F4006544
:101AD00008E007F0080010B145F4805502E0204608
:101AE00000F08EFB07F48070C8B14FF4807021685D
:101AF000886007F4007018B1204600F084FB0EE007
:101B000007F4806010B145F4005508E007F4006068
:101B100010B145F4804502E0204600F073FB07F465
:101B20008030C8B14FF480302168886007F40030FD
:101B300018B1204600F069FB0EE007F4802010B1D8
:101B400045F4004508E007F4002010B145F4803565
:101B500002E0204600F058FB06F0080038B10AF019
:101B6000100020B145F4007510202168C86006F00F
:101B7000040040B10AF0080028B108202168C860BC
:101B8000204600F01DFA06F0020038B12068C06857
:101B900000F0030010B1204600F014FA06F04000F7
:101BA00038B10BF0100020B145F480651020216899
:101BB000086106F0200040B10BF0080028B10820B1
:101BC00021680861204600F0E9FA06F0100038B1FB
:101BD0002068006900F0030010B1204600F0DFFA31
:101BE00006F4003040B109F0100028B1102021683F
:101BF0004860204600F0D4FA06F4803040B109F085
:101C0000080028B1082021684860204600F0FEFA4C
:101C100006F4004088B309F0040078B306F480703D
:101C200020B108F0010008B145F0010506F400708C
:101C300020B108F0020008B145F0020506F480600A
:101C400020B108F0040008B145F0040506F4006076
:101C5000A0B108F0700088B108F07000402817D0DB
:101C600006DC10280BD020280CD0302819D10CE02D
:101C7000502810D0602814D110E01DE019E045F084
:101C800008050FE045F010050CE045F0200509E0DF
:101C900045F0400506E045F0800503E045F4807519
:101CA00000E000BF00BF2068806920F0700021685C
:101CB00088610420216848602DB1606A2843606211
:101CC0002046FFF71DFEBDE8F09F70B504460CB935
:101CD000012070BD94F8200010B9204600F0B0F843
:101CE0002068006840F001002168086000F0E8FD0D
:101CF00005460DE000F0E4FD401B0A2808D9606AA3
:101D000040F400306062052084F820000120E0E704
:101D10002068406800F001000028EBD020680068CF
:101D200020F002002168086000F0CAFD05460DE0C1
:101D300000F0C6FD401B0A2808D9606A40F4003054
:101D40006062052084F820000120C2E72068406816
:101D500000F002000028EBD1207E012806D1206887
:101D6000006840F080002168086005E02068006895
:101D700020F0800021680860607E012806D120687C
:101D8000006840F040002168086005E020680068B5
:101D900020F0400021680860A07E012806D120685C
:101DA000006840F020002168086005E020680068B5
:101DB00020F0200021680860E07E012806D120681C
:101DC000006820F010002168086005E020680068C5
:101DD00040F0100021680860207F012806D12068AB
:101DE000006840F008002168086005E0206800688D
:101DF00020F0080021680860607F012806D1206873
:101E0000006840F004002168086005E02068006870
:101E100020F0040021680860D4E902010843216928
:101E20000843616908436168491E08432168C86125
:101E300000206062012084F82000002049E70000B3
:101E400010B586B00446142101A8FEF765FA56497C
:101E50002068884249D155480068401C53490860B1
:101E60000846006801280FD100BF002000905048AC
:101E7000006840F000704E4908600846006800F0B5
:101E80000070009000BF00BF00BF002000904848D5
:101E90001038006840F008004549103908600846CD
:101EA000006800F00800009000BF00BF0320019010
:101EB0000220029000200390022004900920059047
:101EC00001A93C4800F002FC00220521132000F08B
:101ED000BBFD132000F0A8FD00220521142000F016
:101EE000B3FD142000F0A0FD5CE033492068884277
:101EF00058D100BF002000902D48006840F080605D
:101F00002B4908600846006800F08060009000BF20
:101F100000BF26480068401C244908600846006845
:101F200001280FD100BF002000902148006840F038
:101F300000701F4908600846006800F000700090BB
:101F400000BF00BF00BF0020009019481038006893
:101F500040F002001649103908600846006800F099
:101F60000200009000BF00BF60200190022002909C
:101F700000200390032004900920059001A90F4838
:101F800000F0A4FB002205213F2000F05DFD3F2072
:101F900000F04AFD00220521402000F055FD4020C0
:101FA00000F042FD06B010BD006400403400002087
:101FB00040380240000C024000680040000402402B
:101FC0007047000030B589B004466D48844269D13D
:101FD0006B4602AA00212046FFF793FC9DF8000003
:101FE00008285ADC9DF80000401E664901EB0010ED
:101FF00000789DF80010884206D09DF80010481E19
:10200000604A02EB001001709DF801009DF802107B
:1020100040EA01259DF802109DF8012041EA0220C6
:102020001021DFED590A9FED590A05F095FA9DF848
:102030000000401E534901EB001080ED010A9DF89D
:10204000031009019DF8042041EA22100C21DFED64
:10205000500A9FED500A05F07FFA9DF80000401EDF
:10206000484901EB001080ED020A9DF805109DF82B
:10207000042002F00F0241EA02200C21F3EE020AD2
:10208000BBEE020A05F068FA9DF80000401E3D49CB
:1020900001EB001080ED030A00BF02212046FFF78C
:1020A000DCFA6BE03C48844268D16B4602AA00210E
:1020B0002046FFF726FC9DF8000008285ADC9DF812
:1020C0000000401E2F4901EB001000789DF8001021
:1020D000884206D09DF80010481E2A4A02EB0010E4
:1020E00001709DF801009DF8021040EA01259DF85D
:1020F00002109DF8012041EA02201021DFED220AA2
:102100009FED220A05F028FA9DF80000401E1D49A7
:1021100001EB001080ED010A9DF8031009019DF804
:10212000042041EA22100C21DFED190A9FED190A63
:1021300005F012FA9DF80000401E124901EB001054
:1021400080ED020A9DF805109DF8042002F00F02B0
:1021500041EA02200C21F3EE020ABBEE020A05F06E
:10216000FBF99DF80000401E064901EB001080EDD0
:10217000030A00BF02212046FFF76FFA09B030BD05
:10218000840500202C5000200000BF420000BFC288
:1021900000003442000034C2AC0500207047704794
:1021A000704770B5044694F82000012822D102201F
:1021B00084F820002068006820F001002168086091
:1021C00000F07EFB05460DE000F07AFB401B0A287C
:1021D00008D9606A40F400306062052084F820006D
:1021E000012070BD2068406800F001000028EBD19C
:1021F0006062F6E7606A40F4002060620120F0E768
:10220000704770477047704770477047704770B5A8
:102210000446A56D00F054FB064694F835000228EC
:1022200008D08020606500BF002084F8340000BF23
:10223000012070BD2068006820F016002168086049
:102240002068406920F0800021684861206C08B94E
:10225000A06C28B12068006820F0080021680860A0
:102260002068006820F001002168086010E000F09C
:1022700027FB801B05280BD920206065032084F8EC
:10228000350000BF002084F8340000BF0320D0E7F1
:102290002068006800F001000028E8D194F85C1084
:1022A0003F208840A860012084F8350000BF00204E
:1022B00084F8340000BF00BFBBE7014691F8350049
:1022C000022803D08020486501207047052081F84E
:1022D00035000868006820F001000A6810600020DE
:1022E000F3E70000F8B50446002000908C48006831
:1022F0004FF41651B0FBF1F7A56D2E6894F85C1001
:1023000008208840304098B12068006800F0040040
:1023100070B12068006820F004002168086094F81B
:102320005C1008208840A860606D40F00100606586
:1023300094F85C1001208840304068B12068406902
:1023400000F0800040B194F85C1001208840A86043
:10235000606D40F00200606594F85C1004208840D5
:10236000304068B12068006800F0020040B194F885
:102370005C1004208840A860606D40F00400606537
:1023800094F85C1010208840304078B320680068D2
:1023900000F0080050B394F85C1010208840A8604A
:1023A0002068006800F4802080B12068006800F494
:1023B000002028B9206CC8B12046216C884715E060
:1023C000A06C98B12046A16C88470FE02068006897
:1023D00000F4807028B92068006820F008002168A7
:1023E0000860206C10B12046216C884794F85C107E
:1023F000202088403040002865D02068006800F028
:10240000100000285FD094F85C1020208840A8605D
:1024100094F83500052828D12068006820F01600BF
:10242000216808602068406920F0800021684861C8
:10243000206C08B9A06C28B12068006820F0080062
:102440002168086094F85C103F208840A860012053
:1024500084F8350000BF002084F8340000BF206DF0
:1024600010B12046216D8847F8BD2068006800F44F
:10247000802080B12068006800F4002028B9606CDA
:1024800010B12046616C88471DE0E06BD8B1204652
:10249000E16B884717E02068006800F4807068B935
:1024A0002068006820F0100021680860012084F88E
:1024B000350000BF002084F8340000BFE06B10B18D
:1024C0002046E16B8847606D38B3606D00F0010015
:1024D000F0B1052084F835002068006820F0010084
:1024E0002168086000BF0098401C0090B84200D9E5
:1024F00005E02068006800F001000028F3D100BF6B
:10250000012084F8350000BF002084F8340000BFAB
:10251000E06C10B12046E16C884700BFA4E70000E2
:10252000440000202DE9F0410446002500F0C8F9E0
:10253000074614B90120BDE8F081606A00B100BF10
:10254000022084F8350000BF002084F8340000BF6A
:102550002068006820F00100216808600AE000F0AF
:10256000AFF9C01B052805D920206065032084F839
:102570003500E0E72068006800F001000028EED197
:102580002068056821480540D4E901010843E16855
:1025900008432169084361690843A1690843E16967
:1025A0000843216A08430543606A042803D1D4E93B
:1025B0000B0108430543206805602068456925F044
:1025C0000705606A0543606A04280DD1A06A0543C7
:1025D000E06A48B12046FEF7D1FF28B1402060658F
:1025E000012084F83500A6E7206845612046FEF703
:1025F000ABFF064694F85C103F208840B060002096
:102600006065012084F83500002094E73F8010F0D9
:102610002DE9F04704460D4616461F464FF00008C8
:10262000D4F8589000BF94F83400012802D1022059
:10263000BDE8F087012084F8340000BF94F835002D
:10264000012825D1022084F83500002060653B4632
:10265000324629462046FEF7E6FF94F85C103F20FC
:102660008840C9F808002068006840F0160021681A
:102670000860206C28B12068006840F008002168DC
:1026800008602068006840F001002168086006E0EA
:1026900000BF002084F8340000BF4FF0020840461D
:1026A000C6E7000070B5044600F00AF90646254664
:1026B000681C10B104480078054400BF00F000F920
:1026C000801BA842FAD370BD40000020F8B5024636
:1026D0000B460025002400200021D6E0012606FA42
:1026E00001F51E6806EA0504AC4274D11E7906F0B5
:1026F0000306012E04D01E7906F00306022E13D124
:1027000090684F000326BE40B0434F00DE68BE40D5
:1027100030439060506801268E40B0431E79C6F366
:1027200000168E40304350601E7906F00306032EDB
:1027300009D0D0684F000326BE40B0434F009E68CA
:10274000BE403043D0601E7906F00306022E13D13E
:10275000CF0802F1200656F827004E07F70E0F2685
:10276000BE40B0434F07FF0E1E69BE403043CF0846
:1027700002F1200646F8270010684F000326BE40ED
:10278000B0431E7906F003064F00BE403043106090
:102790005E6806F44036002E76D000BF0026009614
:1027A0003C4E366846F480463A4F3E603E463668B8
:1027B00006F48046009600BF00BF374E8F0856F8DB
:1027C00027008E07370F0F26BE40B043334EB2426C
:1027D00002D1002624E057E0314EB24201D1012659
:1027E0001EE0304EB24201D1022619E02E4EB24216
:1027F00001D1032614E02D4EB24201D104260FE090
:102800002B4EB24201D105260AE02A4EB24201D136
:10281000062605E0284EB24201D1072600E0082630
:102820008F073F0FBE4030431B4E8F0846F82700EE
:10283000224E3068A0435E6806F4801606B120433D
:102840001E4E3060361D3068A0435E6806F40016E8
:1028500006B12043194E361D3060184E361F3068C1
:10286000A0435E6806F4003606B12043134E361FBF
:102870003060361F3068A0435E6806F4803606B1CB
:1028800020430E4E083E3060491C1029FFF426AF4D
:10289000F8BD000044380240083801400000024002
:1028A0000004024000080240000C024000100240F8
:1028B0000014024000180240001C0240083C014085
:1028C0000148006870470000380000200348006895
:1028D000034909780844014908607047380000201E
:1028E0004000002010B50D48006840F400700B490E
:1028F00008600846006840F4806008600846006888
:1029000040F480700860032000F0DCF80F2000F035
:1029100007F800F05FF8002010BD0000003C024006
:102920002DE9F04188B004460027B84600BF0020DA
:1029300001902348006840F02000214908600846C3
:10294000006800F02000019000BF00BF02A903A8AA
:1029500000F08EF9069F1FB900F0B2F9054602E0BB
:1029600000F0AEF945001748B5FBF0F0A0F1010802
:1029700015481649086040F2E7311448C160C0F8B4
:102980000480002101618160816100F061FC0646E4
:1029900096B90E4800F090FC06466EB9372000F05C
:1029A00043F8102C07D200222146372000F04CF8C3
:1029B0000748046000E00126304608B0BDE8F08119
:1029C0004038024040420F0000140040BC06002086
:1029D0003C00002008B500BF0020009011480068AE
:1029E00040F480400F4908600846006800F48040C9
:1029F000009000BF00BF00BF00200090081F0068CB
:102A000040F08050091F08600846006800F08050C0
:102A1000009000BF00BF00220F21901E00F014F8AC
:102A200008BD00004438024001460846002809DB82
:102A300000F01F0301229A4043099B0003F1E023A9
:102A4000C3F8002100BF70472DE9F05F80460D46B6
:102A50001646002703F036FA074639462A4633461B
:102A600001F00700C0F1070ABAF1040F02D94FF0D4
:102A7000040A01E0C0F1070AD14600F1040ABAF1E4
:102A8000070F02D24FF0000A01E0A0F1030AD4467A
:102A90004FF0010A0AFA09FAAAF1010A0AEA020A3F
:102AA0000AFA0CFA4FF0010B0BFA0CFBABF1010B1D
:102AB0000BEA030B4AEA0B042146404603F00AFAEC
:102AC000BDE8F09F00BF00F00702064B19684FF603
:102AD000FF031940044B0B4343EA0221014B1960E9
:102AE00000BF70470CED00E00000FA0570B5044629
:102AF0000D460CB9012070BD5848006800F0070071
:102B0000A84209D255490D700846006800F0070038
:102B1000A84201D00120EEE7207800F00200022850
:102B20001DD1207800F00400042805D14C4800682D
:102B300040F4E0504A490860207800F00800082876
:102B400005D14748006840F4604045490860444862
:102B5000006820F0F000A16808434149086020782F
:102B600000F00100A8B36068012807D13C4808388C
:102B70000068C0F34040B8B90120BCE76068022893
:102B800002D06068032807D1354808380068C0F3D0
:102B9000406048B90120AEE7314808380068C0F30A
:102BA000400008B90120A6E72D48006820F0030086
:102BB000616808432A490860FFF782FE064609E07B
:102BC000FFF77EFE801B41F28831884202D9032044
:102BD00091E707E02248006800F00C006168B0EB64
:102BE000810FEDD11D48006800F00700A84209D907
:102BF0001A490D700846006800F00700A84201D08D
:102C0000012078E7207800F00400042807D1144858
:102C1000006820F4E050E16808431149086020781A
:102C200000F00800082808D10D48006820F4604032
:102C3000216940EAC1000A49086000F061F80849CA
:102C40000968C1F30311074A515CC840064908608E
:102C500006480068FFF764FE00204CE7003C024095
:102C600008380240648A0008440000203C0000202C
:102C70000F2202600D4A126802F0030242600B4A02
:102C8000126802F0F0028260084A126802F4E05210
:102C9000C260064A126802F46042D2080261044A25
:102CA000126802F007020A6070470000083802400C
:102CB000003C0240014800687047000044000020CA
:102CC00000B5FFF7F7FF04490968C1F38221034A01
:102CD000515CC84000BD000008380240748A0008FA
:102CE00000B5FFF7E7FF04490968C1F34231034A21
:102CF000515CC84000BD000008380240748A0008DA
:102D00002DE9F047002400250026A146254800684B
:102D100000F00C0020B1042805D008283AD105E0C5
:102D2000DFF8849039E0DFF8849036E01D48001F1A
:102D3000006800F03F041B48001F006800F480009A
:102D400078B11A481749091F0968C1F38811A0FB17
:102D500001700146224600233846FDF793FA0546E6
:102D60000EE011480F49091F0968C1F38811A0FB43
:102D700001700146224600233846FDF783FA0546D6
:102D80000848001F0068C0F30140401C4600B5FB26
:102D9000F6F902E0DFF8109000BF00BF4846BDE83A
:102DA000F0870000083802400024F40000127A0086
:102DB000F8B504460CB90120F8BD207800F00100F8
:102DC000002874D0F948006800F00C0004280DD0E9
:102DD000F648006800F00C00082813D1F348001FE3
:102DE000006800F48000B0F5800F0BD1EF48083880
:102DF0000068C0F34040002859D06068002856D1D0
:102E00000120D9E700BF6068B0F5803F08D1E748EE
:102E10000838006840F48030E449083908601EE052
:102E20006068B0F5A02F0DD1E0480838006840F484
:102E30008020DE49083908600846006840F4803088
:102E400008600CE0D9480838006820F48030D74981
:102E5000083908600846006820F48020086000BF38
:102E6000606890B1FFF72CFD054606E0FFF728FDEE
:102E7000401B642801D903209EE7CC48083800682D
:102E8000C0F340400028F1D011E0FFF719FD0546DE
:102E900006E0FFF715FD401B642801D903208BE7EE
:102EA000C24808380068C0F340400028F1D12078BB
:102EB00000F0020002285FD1BC48006800F00C005E
:102EC00058B1BA48006800F00C0008281CD1B74877
:102ED000001F006800F48000B0B9B44808380068EA
:102EE000C0F3400020B1E068012801D0012063E771
:102EF000AE480838006820F0F800216940EAC100B7
:102F0000AA490839086037E0E06800B30120A84901
:102F10000860FFF7D5FC054606E0FFF7D1FC401B33
:102F2000022801D9032047E7A04808380068C0F309
:102F300040000028F1D09D480838006820F0F800D3
:102F4000216940EAC10099490839086014E000206D
:102F500097490860FFF7B4FC054606E0FFF7B0FCB0
:102F6000401B022801D9032026E790480838006852
:102F7000C0F340000028F1D1207800F008000828B4
:102F80002CD16069A8B101208A490860FFF798FC3C
:102F9000054606E0FFF794FC401B022801D90320F8
:102FA0000AE782486C300068C0F340000028F1D086
:102FB00014E000207F490860FFF782FC054606E028
:102FC000FFF77EFC401B022801D90320F4E6774876
:102FD0006C300068C0F340000028F1D1207800F088
:102FE0000400042870D1002770483830006800F0D1
:102FF000805090B900BF002000906C4838300068C5
:1030000040F080506949383108600846006800F097
:103010008050009000BF00BF01276748006800F49F
:103020008070B0B96448006840F4807062490860FC
:10303000FFF746FC054606E0FFF742FC401B02286E
:1030400001D90320B8E65C48006800F480700028CD
:10305000F2D000BFA068012808D154486830006849
:1030600040F001005149683108601DE0A068052862
:103070000DD14E486830006840F004004B4968317B
:1030800008600846006840F0010008600CE047480E
:103090006830006820F00100444968310860084643
:1030A000006820F00400086000BFA068A8B1FFF726
:1030B00007FC054609E0FFF703FC401B41F288319D
:1030C000884202D9032077E626E038486830006855
:1030D000C0F340000028EED013E0FFF7F1FB0546F7
:1030E00008E0FFF7EDFB401B41F28831884201D92F
:1030F000032061E62D4868300068C0F340000028D6
:10310000EFD1012F07D129483830006820F08050D6
:1031100026493831086000BFA069002845D02348FF
:10312000006800F00C0008285DD0A069022845D195
:1031300000201F490866FFF7C3FB054606E0FFF7BE
:10314000BFFB401B022801D9032035E61748083889
:103150000068C0F340600028F1D1D4E907010843BA
:10316000616A40EA81110122A06AC2EB500041EA83
:1031700000412C20005D41EA00600C49091F0860F5
:1031800001200B490866FFF79BFB054606E0FFF7A9
:1031900097FB401B022801D903200DE6034808389D
:1031A0000068C0F340600028F1D049E008380240D0
:1031B00000004742800E4742007000400020214935
:1031C0000866FFF77DFB054606E0FFF779FB401B2D
:1031D000022801D90320EFE51B480068C0F34060D6
:1031E0000028F2D12CE0A069012800D1E4E51648BE
:1031F000001D0668A069012820D006F48001E0695E
:1032000081421BD106F03F01206A814216D147F668
:10321000C0703040616AB0EB811F0FD106F44031BD
:103220000122A06AC2EB5000B1EB004F06D106F0BC
:1032300070612C20005DB1EB006F01D00120BBE577
:103240000020B9E50000474200380240704770474F
:1032500010B504460CB9012010BD94F83D0028B902
:10326000002084F83C00204600F025F8022084F875
:103270003D00211D206802F073FA012084F8460009
:1032800000BF84F83E0001213F2001554020015538
:103290004120015500BF00BF012084F842004320B7
:1032A0000155442001554520015500BF012084F8F7
:1032B0003D000020D0E77047014691F83D0001280D
:1032C00001D001207047022081F83D000868C068E5
:1032D00040F001000B68D8601A4B086898421BD078
:1032E0000868B0F1804F17D0174B0868984213D088
:1032F000164B086898420FD0154B086898420BD0BF
:10330000144B0868984207D0134B0868984203D0C2
:10331000124B086898420CD10868806800F00702D8
:10332000062A0CD00868006840F001000B6818609D
:1033300005E00868006840F001000B681860002094
:10334000C0E7000000000140000400400008004009
:10335000000C004000040140004001400018004003
:10336000704710B5044620680069C0F34000D8B12A
:103370002068C068C0F34000B0B16FF0020021685F
:103380000861012020772068806900F0030018B1EF
:103390002046FFF7E5FF05E0204600F0ADF82046A7
:1033A00000F0ABF80020207720680069C0F38000AF
:1033B000D8B12068C068C0F38000B0B16FF00400DD
:1033C00021680861022020772068806900F440703D
:1033D00018B12046FFF7C4FF05E0204600F08CF846
:1033E000204600F08AF80020207720680069C0F3AA
:1033F000C000D8B12068C068C0F3C000B0B16FF0A1
:10340000080021680861042020772068C06900F066
:10341000030018B12046FFF7A3FF05E0204600F0A7
:103420006BF8204600F069F80020207720680069DA
:10343000C0F30010D8B12068C068C0F30010B0B16C
:103440006FF0100021680861082020772068C069AB
:1034500000F4407018B12046FFF782FF05E02046D7
:1034600000F04AF8204600F048F800202077206855
:10347000006900F0010058B12068C06800F0010048
:1034800030B16FF0010021680861204600F036F885
:1034900020680069C0F3C01058B12068C068C0F34C
:1034A000C01030B16FF08000216808612046FFF73E
:1034B000CDFE20680069C0F3801058B12068C06854
:1034C000C0F3801030B16FF04000216808612046E1
:1034D00000F020F820680069C0F3401058B120685F
:1034E000C068C0F3401030B16FF02000216808615F
:1034F0002046FFF7ACFE10BD7047704710B504467C
:1035000003492068884201D1FFF7E0F910BD0000AF
:10351000001400407047704770B5044600252068CD
:103520004069C0F3C01594F83D00212817D1B5B10A
:1035300000BF00BF2168143151E8001F21F0800056
:103540002168143141E80002002AF3D100BF606B0A
:1035500010B1606BFEF75BFE204602F057FA206860
:103560004069C0F3801594F83E00222817D1B5B108
:1035700000BF00BF2168143151E8001F21F0400056
:103580002168143141E80002002AF3D100BFA06B8A
:1035900010B1A06BFEF73BFE204602F0F1F90020CF
:1035A00070BD70472DE9F84F044620680568206813
:1035B000C668206847694FF00009CA4605F00F0940
:1035C000B9F1000F0AD105F0200038B106F0200053
:1035D00020B1204602F02DFABDE8F88FB9F1000FB6
:1035E0007CD007F0010018B906F49070002875D05F
:1035F00005F0010030B106F4807018B1206C40F085
:103600000100206405F0040030B107F0010018B19A
:10361000206C40F00200206405F0020030B107F099
:10362000010018B1206C40F00400206405F008008F
:1036300048B106F0200010B907F0010018B1206C65
:1036400040F008002064206C002846D005F02000DF
:1036500028B106F0200010B1204602F0EAF92068F7
:103660004069C0F3801A206C00F0080010B9BAF16C
:10367000000F2DD0204602F083F92068406900F049
:103680004000402820D100BF00BF2168143151E81C
:10369000001F21F040002168143141E80002002A97
:1036A000F3D100BFA06B50B17548A16B0865A06B4A
:1036B000FEF703FE88B1A06B016D88470DE0204640
:1036C000FFF76FFF09E009E02046FFF76AFF04E01B
:1036D0002046FFF766FF002020647DE7206B01286D
:1036E00076D105F01000002872D006F010000028F6
:1036F000FAD000BF00200090206800680090206889
:103700004068009000BF00BF2068406900F04000A2
:1037100040285ED1A06B006840681FFA80F8B8F1BD
:10372000000F54D0A08D404551DDA4F82E80A06B31
:10373000C069B0F5807F43D000BF00BF21680C3165
:1037400051E8001F21F4807021680C3141E800022B
:10375000002AF3D100BF00BF00BF2168143151E837
:10376000001F21F001002168143141E80002002A05
:10377000F3D100BF00BF00BF2168143151E8001F22
:1037800021F040002168143141E80002002AF3D101
:1037900000BF202084F83E000020206300BF00BF4F
:1037A00021680C3151E8001F21F0100021680C3114
:1037B00041E80002002AF3D100BFA06BFEF727FD0D
:1037C000A08DE28D801A81B22046FFF7A4FE03E7A8
:1037D00040E0A08DE18D401A1FFA80F8E08DC0B363
:1037E000B8F1000F35D000BF00BF21680C3151E89F
:1037F000001F21F4907021680C3141E80002002A7A
:10380000F3D100BF00BF00BF2168143151E8001F91
:1038100021F001002168143141E80002002AF3D1AF
:1038200000BF202084F83E000020206300BF00BFBE
:1038300021680C3151E8001F21F0100021680C3183
:1038400041E80002002AF3D100BF41462046FFF7BD
:1038500062FEC1E605F0800030B106F0800018B1CC
:10386000204602F0E1FAB7E605F0400030B106F07C
:10387000400018B1204602F0B9F8ADE600BFABE653
:103880004D58000810B504460CB9012010BDA069C0
:1038900000B100E000BF94F83D0028B9002084F892
:1038A0003C00204600F028F8242084F83D002068E1
:1038B000C06820F400502168C860204602F036F944
:1038C0002068006920F49040216808612068406900
:1038D00020F02A00216848612068C06840F4005048
:1038E0002168C86000202064202084F83D0084F80E
:1038F0003E000020CAE7000010B586B0044614213F
:1039000001A8FCF709FD5C492068884275D100BF19
:10391000002000905948006840F480105749086022
:103920000846006800F48010009000BF00BF00BF90
:103930000020009051481038006840F004004F49C2
:10394000103908600846006800F00400009000BFCD
:1039500000BF00BF002000900846006840F008004B
:1039600008600846006800F00800009000BF00BF33
:1039700088140190022002900020039003200490FC
:103980000820059001A93E48FEF7A0FE0420019002
:10399000022002900020039003200490082005904C
:1039A00001A93848FEF792FE374838490860C0053B
:1039B0004860002135488160C1604FF48061016139
:1039C000002141618161C1614FF4403101620021F8
:1039D0004162FEF7A7FD08B1FDF73CFE00BF2B4892
:1039E000A063846300BF002205213520FFF72CF877
:1039F0003520FFF719F83DE0FFE7254920688842A8
:103A000038D100BF002000901C48006840F480209E
:103A10001A4908600846006800F48020009000BF42
:103A200000BF00BF0020009014481038006840F02C
:103A300002001249103908600846006800F00200D0
:103A4000009000BF00BF4FF4406001900220029040
:103A500000200390032004900720059001A90D4841
:103A6000FEF734FE002205212720FEF7EDFF272078
:103A7000FEF7DAFF06B010BD0050004040380240AB
:103A800000080240000C0240106002405C0600206A
:103A9000004800400004024070B504460D4616463A
:103AA00094F83E00202816D105B10EB9012070BD52
:103AB00000BF94F83C00012801D10220F7E7012063
:103AC00084F83C0000BF002020633246294620468F
:103AD00002F042F9EBE70220E9E7704770477047D0
:103AE00000BFFEE770B52DED088BF0EE408AB0EE1A
:103AF000419AF0EE619A04460D4653EC192B51ECB5
:103B0000190BFCF7BBFC41EC1B0BFCF7DBFD00EEDB
:103B1000100A08EEA80AF0EE40AA02F0DDFBB0EEB3
:103B2000408A88EE880AF0EE40AA02F077FADFEDCC
:103B3000150A20EE200AB0EE40AA9FED130A08EE07
:103B4000080ADFED120A30EE600ADFED110A68EEB6
:103B5000200A80EE201AF0EE41AAB0EE6A0A02F0C6
:103B6000D1F9DFED080A20EE200AB0EE408A38EEE7
:103B70004A0A84ED000A38EE0A0A85ED000ABDEC17
:103B8000088B70BDE12E654200401C460020FD46BA
:103B90000000484310B50F480F49086003204860F3
:103BA00000210D488160C1604FF4002101614FF494
:103BB0004011416100210176012141768176C17673
:103BC0000021017701214177FEF77FF808B1FDF769
:103BD00041FD10BD006400408405002010B50F4871
:103BE0000F4908600620486000210D488160C160CF
:103BF0004FF4403101614FF48011416100210176A1
:103C0000012141768176C17600210177012141773A
:103C1000FEF75BF808B1FDF71DFD10BD0068004020
:103C2000AC05002008B500BF002000900A480068DD
:103C300040F40010084908600846006800F40010CD
:103C4000009000BF00BF002205210B20FEF7FCFE04
:103C50000B20FEF7E9FE08BD3038024010B50E4AD1
:103C600000210E4802F028FD0D4908600D4A002190
:103C70000D4802F021FD0D4908600D4A00210D4854
:103C800002F01AFD0C4908600C4A00210C4802F0B1
:103C900013FD0C49086010BDCC890008A150000834
:103CA00024000020F0890008AD5000082800002002
:103CB000148A0008715300082C000020388A00087C
:103CC000F15300083000002008B500BF002000902C
:103CD0002448006840F080002249086008460068D7
:103CE00000F08000009000BF00BF00BF00200090E7
:103CF0000846006840F0020008600846006800F0CE
:103D00000200009000BF00BF00BF002000900846E6
:103D1000006840F0010008600846006800F00100FB
:103D2000009000BF00BF00BF002000900846006860
:103D300040F0040008600846006800F004000090AD
:103D400000BF00BF00BF002000900846006840F0A0
:103D5000080008600846006800F00800009000BFF6
:103D600000BF08BD3038024010B50C480C4908604F
:103D70000C4848604FF48051094881604900C16097
:103D8000C91001610421416100218161C161FFF716
:103D900079FD08B1FDF75EFC10BD00000050004049
:103DA000D4050020A086010010B50C480C4908601D
:103DB0000C48486000210A4881604FF40051C160FE
:103DC000C91001610421416100218161C161FFF7D6
:103DD00059FD08B1FDF73EFC10BD00000048004051
:103DE00018060020A086010000BFFEE700BFFEE726
:103DF00010B5224C60606161E260E36184ED000A0D
:103E0000C4ED040A9FED1E4A84ED024A9FED1C4A50
:103E100084ED064AA062A1632263236484ED091A3B
:103E2000C4ED0D1A9FED164A84ED0B4A9FED144A1E
:103E300084ED0F4AE064E1656265636684ED122AF1
:103E4000C4ED162A9FED0E4A84ED144A9FED0C4AEC
:103E500084ED184A2067C4F88010A267C4F888303F
:103E600084ED1B3AC4ED1F3A9FED054A84ED1D4ACF
:103E70009FED034A84ED214A10BD0000AC500020A4
:103E8000000000002DED020B84B0FE484068800069
:103E9000C117039000EB9170801000EE100AB8EE8D
:103EA000C00AF848D0ED000AB4EEE00AF1EE10FACC
:103EB00008D89FEDF50A80ED000A9FEDF30A80ED2A
:103EC000020AEDE0EF4890ED000AB5EEC00AF1EE0F
:103ED00010FA0AD290ED010AB8EEC00A80ED000A8D
:103EE0009FEDE90A80ED020ADAE0E6484068C11772
:103EF000039000EB9170801000EE100AB8EEC00A3B
:103F0000E048D0ED000AB4EEE00AF1EE10FA19DB59
:103F10004068C117029000EB91708010D949C968C0
:103F200091FBF0F000EE100AB8EEC00A8DED030A26
:103F3000D448D0ED000A9DED030A20EE800A80ED02
:103F4000020AADE0CF484068C117029000EB9170C3
:103F5000801000EE100AB8EEC00ACA48D0ED000A80
:103F6000B4EEE00AF1EE10FA53D2406800EB4000E4
:103F7000C117039000EB9170801000EE100AB8EEAC
:103F8000C00AC048D0ED000AB4EEE00AF1EE10FA23
:103F90003FDD406800EB4000C117009000EB9170DE
:103FA0008110B8484068C217019000EB9270A1EBF5
:103FB000A000B449C9684942B24AD268891A91FB43
:103FC000F0F000EE100AB8EEC00A8DED030AAD481D
:103FD00040684000C117019000EB9170801000EE26
:103FE000100AF8EEC00A9DED030A20EE800AF7EEF3
:103FF000000A20EE600A8DED020AA24890ED001A38
:10400000DDED030A9DED020A01EE200A80ED020AB1
:1040100046E09C48406800EB4000C117039000EB6D
:104020009170801000EE100AB8EEC00A9548D0EDED
:10403000000AB4EEE00AF1EE10FA31D84068C11778
:10404000019000EB917080108E49C96891FBF0F0EF
:1040500000EE100AB8EEC00A8DED030A89484068E8
:104060008000C117019000EB9170801000EE100AE3
:10407000F8EEC00A9DED030A20EE800AF7EE000A72
:1040800020EE600A8DED020A7E4890ED001ADDED0B
:10409000030A9DED020A01EE200A80ED020A00BF2C
:1040A000784840698000C117039000EB9170801040
:1040B00000EE100AB8EEC00A7248D0ED040AB4EE61
:1040C000E00AF1EE10FA08D89FED6F0A80ED040ABD
:1040D0009FED6D0A80ED060AF2E06A4890ED040A51
:1040E000B5EEC00AF1EE10FA0AD290ED050AB8EE6C
:1040F000C00A80ED040A9FED640A80ED060ADFE045
:1041000060484069C117039000EB9170801000EE89
:10411000100AB8EEC00A5B48D0ED040AB4EEE00A1B
:10412000F1EE10FA19DB4069C117029000EB9170B3
:1041300080105449C96991FBF0F000EE100AB8EE06
:10414000C00A8DED030A4F48D0ED040A9DED030A25
:1041500020EE800A80ED060AB2E04A484069C117A5
:10416000029000EB9170801000EE100AB8EEC00AC9
:104170004448D0ED040AB4EEE00AF1EE10FA53D24E
:10418000406900EB4000C117039000EB9170801074
:1041900000EE100AB8EEC00A3A48D0ED040AB4EEB8
:1041A000E00AF1EE10FA3FDD406900EB4000C11774
:1041B000009000EB9170811032484069C217019065
:1041C00000EB9270A1EBA0002E49C96949422D4A2B
:1041D000D269891A91FBF0F000EE100AB8EEC00A1D
:1041E0008DED030A274840694000C117019000EB9C
:1041F0009170801000EE100AF8EEC00A9DED030ADF
:1042000020EE800AF7EE000A20EE600A8DED020A29
:104210001C4890ED041ADDED030A9DED020A01EE43
:10422000200A80ED060A4BE01648406900EB40008A
:10423000C117039000EB9170801000EE100AB8EEE9
:10424000C00A1048D0ED040AB4EEE00AF1EE10FA0C
:1042500036D84069C117019000EB91708010094970
:10426000C96991FBF0F000EE100AB8EEC00A8DEDBE
:10427000030A044840698000C117019000EB917067
:10428000801003E0AC5000200000000000EE100A97
:10429000F8EEC00A9DED030A20EE800AF7EE000A50
:1042A00020EE600A8DED020AFE4890ED041ADDED65
:1042B000030A9DED020A01EE200A80ED060A00BF06
:1042C000F848806A8000C117039000EB917080105D
:1042D00000EE100AB8EEC00AF248D0ED090AB4EEBA
:1042E000E00AF1EE10FA08D81FED190A80ED090A6C
:1042F0001FED1B0A80ED0B0AEDE0EA4890ED090A7C
:10430000B5EEC00AF1EE10FA0AD290ED0A0AB8EE44
:10431000C00A80ED090A1FED240A80ED0B0ADAE0DD
:10432000E048806AC117039000EB9170801000EEA6
:10433000100AB8EEC00ADB48D0ED090AB4EEE00A74
:10434000F1EE10FA19DB806AC117029000EB917050
:104350008110D448006B90FBF1F000EE100AB8EE2B
:10436000C00A8DED030ACF48D0ED090A9DED030A7E
:1043700020EE800A80ED0B0AADE0CA48806AC117C2
:10438000029000EB9170801000EE100AB8EEC00AA7
:10439000C448D0ED090AB4EEE00AF1EE10FA53D2A7
:1043A000806A00EB4000C117039000EB9170801011
:1043B00000EE100AB8EEC00ABA48D0ED090AB4EE11
:1043C000E00AF1EE10FA3FDD806A00EB4000C11711
:1043D000009000EB91708110B248806AC217019082
:1043E00000EB9270A1EBA001AE48006B4242AD48D9
:1043F000006B101A90FBF1F000EE100AB8EEC00A44
:104400008DED030AA748806A4000C117019000EBB8
:104410009170801000EE100AF8EEC00A9DED030ABC
:1044200060EE800AB7EE000A20EEC00A8DED020AA7
:104430009C4890ED091ADDED030A9DED020A01EE9C
:10444000200A80ED0B0A46E09648806A00EB4000A7
:10445000C117039000EB9170801000EE100AB8EEC7
:10446000C00A9048D0ED090AB4EEE00AF1EE10FA65
:1044700031D8806AC117019000EB91708110894892
:10448000006B90FBF1F000EE100AB8EEC00A8DED63
:10449000030A8448806A8000C117019000EB917084
:1044A000801000EE100AF8EEC00A9DED030A60EEDF
:1044B000800AB7EE000A20EEC00A8DED020A7948A4
:1044C00090ED091ADDED030A9DED020A01EE200AC6
:1044D00080ED0B0A00BF7348806B8000C11703900A
:1044E00000EB9170801000EE100AB8EEC00A6D4823
:1044F000D0ED0D0AB4EEE00AF1EE10FA08D81FED87
:104500009E0A80ED0D0A1FEDA00A80ED0F0AF1E072
:10451000644890ED0D0AB5EEC00AF1EE10FA0AD229
:1045200090ED0E0AB8EEC00A80ED0D0A1FEDAA0A42
:1045300080ED0F0ADEE05B48806BC117039000EB53
:104540009170801000EE100AB8EEC00A5548D0ED08
:104550000D0AB4EEE00AF1EE10FA19DB806BC11718
:10456000029000EB917081104E48006C90FBF1F0CE
:1045700000EE100AB8EEC00A8DED030A4948D0EDEE
:104580000D0A9DED030A20EE800A80ED0F0AB1E0CE
:104590004448806BC117029000EB9170801000EED0
:1045A000100AB8EEC00A3F48D0ED0D0AB4EEE00A9A
:1045B000F1EE10FA53D2806B00EB4000C11703906C
:1045C00000EB9170801000EE100AB8EEC00A35487A
:1045D000D0ED0D0AB4EEE00AF1EE10FA3FDD806B8B
:1045E00000EB4000C117009000EB917081102D4846
:1045F000806BC217019000EB9270A1EBA0012948DB
:10460000006C42422748006C101A90FBF1F000EE5B
:10461000100AB8EEC00A8DED030A2248806B4000F4
:10462000C117019000EB9170801000EE100AF8EEB7
:10463000C00A9DED030A20EE800AF7EE000A20EE84
:10464000600A8DED020A174890ED0D1ADDED030AA0
:104650009DED020A01EE200A80ED0F0A4AE01148A2
:10466000806B00EB4000C117039000EB917080104D
:1046700000EE100AB8EEC00A0A48D0ED0D0AB4EEFA
:10468000E00AF1EE10FA35D8806BC117019000EB0B
:10469000917081100348006C90FBF1F000EE100A5D
:1046A00002E00000AC500020B8EEC00A8DED030A15
:1046B000F848806B8000C117019000EB917080106A
:1046C00000EE100AF8EEC00A9DED030A20EE800A03
:1046D000F7EE000A20EE600A8DED020AED4890ED3B
:1046E0000D1ADDED030A9DED020A01EE200A80EDB0
:1046F0000F0A00BFE748C06C8000C117039000EBB1
:104700009170801000EE100AB8EEC00AE148D0EDBA
:10471000120AB4EEE00AF1EE10FA08D89FEDDE0AB4
:1047200080ED120A9FEDDC0A80ED140AEDE0D94815
:1047300090ED120AB5EEC00AF1EE10FA0AD290ED31
:10474000130AB8EEC00A80ED120A9FEDD30A80ED7D
:10475000140ADAE0CF48C06CC117039000EB9170E7
:10476000801000EE100AB8EEC00ACA48D0ED120A56
:10477000B4EEE00AF1EE10FA19DBC06CC11702903A
:1047800000EB91708110C348406D90FBF1F000EE9A
:10479000100AB8EEC00A8DED030ABE48D0ED120A29
:1047A0009DED030A20EE800A80ED140AADE0B948C1
:1047B000C06CC117029000EB9170801000EE100ADF
:1047C000B8EEC00AB348D0ED120AB4EEE00AF1EE3A
:1047D00010FA53D2C06C00EB4000C117039000EBFD
:1047E0009170801000EE100AB8EEC00AA948D0ED12
:1047F000120AB4EEE00AF1EE10FA3FDDC06C00EBF5
:104800004000C117009000EB91708110A148C06C6E
:10481000C217019000EB9270A1EBA0019D48406D82
:1048200042429C48406D101A90FBF1F000EE100AD5
:10483000B8EEC00A8DED030A9648C06C4000C1175F
:10484000019000EB9170801000EE100AF8EEC00AA3
:104850009DED030A20EE800AF7EE000A20EE600AC2
:104860008DED020A8B4890ED121ADDED030A9DEDE5
:10487000020A01EE200A80ED140A46E08548C06C69
:1048800000EB4000C117039000EB9170801000EE28
:10489000100AB8EEC00A7F48D0ED120AB4EEE00A62
:1048A000F1EE10FA31D8C06CC117019000EB917095
:1048B00081107848406D90FBF1F000EE100AB8EEE0
:1048C000C00A8DED030A7348C06C8000C1170190C7
:1048D00000EB9170801000EE100AF8EEC00A9DED1A
:1048E000030A20EE800AF7EE000A20EE600A8DED42
:1048F000020A684890ED121ADDED030A9DED020AE6
:1049000001EE200A80ED140A00BF6248C06D8000ED
:10491000C117039000EB9170801000EE100AB8EE02
:10492000C00A5C48D0ED160AB4EEE00AF1EE10FAC7
:1049300008D89FED590A80ED160A9FED570A80EDC1
:10494000180AF2E0534890ED160AB5EEC00AF1EEEF
:1049500010FA0AD290ED170AB8EEC00A80ED160AD6
:104960009FED4D0A80ED180ADFE04A48C06DC1177F
:10497000039000EB9170801000EE100AB8EEC00AB0
:104980004448D0ED160AB4EEE00AF1EE10FA19DB55
:10499000C06DC117029000EB917081103D48406ED0
:1049A00090FBF1F000EE100AB8EEC00A8DED030A9C
:1049B0003848D0ED160A9DED030A20EE800A80EDFE
:1049C000180AB2E03348C06DC117029000EB917035
:1049D000801000EE100AB8EEC00A2E48D0ED160A7C
:1049E000B4EEE00AF1EE10FA58D2C06D00EB4000D0
:1049F000C117039000EB9170801000EE100AB8EE22
:104A0000C00A2448D0ED160AB4EEE00AF1EE10FA1E
:104A100044DDC06D00EB4000C117009000EB9170C9
:104A200081101C48C06DC217019000EB9270A1EB81
:104A3000A0011848406E42421648406E101A90FB82
:104A4000F1F000EE100AB8EEC00A8DED030A11482D
:104A5000C06D4000C117019000EB9170801000EE16
:104A6000100AF8EEC00A9DED030A20EE800AF7EE68
:104A7000000A20EE600A8DED020A064890ED161A33
:104A8000DDED030A9DED020A01EE200A80ED180A11
:104A90004BE00000AC50002000000000FE48C06D5C
:104AA00000EB4000C117039000EB9170801000EE06
:104AB000100AB8EEC00AF848D0ED160AB4EEE00AC3
:104AC000F1EE10FA31D8C06DC117019000EB917072
:104AD0008110F148406E90FBF1F000EE100AB8EE44
:104AE000C00A8DED030AEC48C06D8000C11701902B
:104AF00000EB9170801000EE100AF8EEC00A9DEDF8
:104B0000030A20EE800AF7EE000A20EE600A8DED1F
:104B1000020AE14890ED161ADDED030A9DED020A46
:104B200001EE200A80ED180A00BFDB48006F80000C
:104B3000C117039000EB9170801000EE100AB8EEE0
:104B4000C00AD548D0ED1B0AB4EEE00AF1EE10FA27
:104B500008D81FED2F0A80ED1B0A1FED310A80EDEA
:104B60001D0AEDE0CC4890ED1B0AB5EEC00AF1EE4F
:104B700010FA0AD290ED1C0AB8EEC00A80ED1B0AAA
:104B80001FED3B0A80ED1D0ADAE0C348006FC11734
:104B9000039000EB9170801000EE100AB8EEC00A8E
:104BA000BD48D0ED1B0AB4EEE00AF1EE10FA19DBB5
:104BB000006FC117029000EB91708110B648806FB2
:104BC00090FBF1F000EE100AB8EEC00A8DED030A7A
:104BD000B148D0ED1B0A9DED030A20EE800A80ED5E
:104BE0001D0AADE0AC48006FC117029000EB917058
:104BF000801000EE100AB8EEC00AA748D0ED1B0ADC
:104C0000B4EEE00AF1EE10FA53D2006F00EB400070
:104C1000C117039000EB9170801000EE100AB8EEFF
:104C2000C00A9D48D0ED1B0AB4EEE00AF1EE10FA7E
:104C30003FDD006F00EB4000C117009000EB91706A
:104C400081109548006FC217019000EB9270A1EBA4
:104C5000A0019148806F42428F48806F101A90FBEC
:104C6000F1F000EE100AB8EEC00A8DED030A8A4892
:104C7000006F4000C117019000EB9170801000EEB2
:104C8000100AF8EEC00A9DED030A20EE800AF7EE46
:104C9000000A20EE600A8DED020A7F4890ED1B1A93
:104CA000DDED030A9DED020A01EE200A80ED1D0AEA
:104CB00046E07948006F00EB4000C117039000EB1D
:104CC0009170801000EE100AB8EEC00A7248D0ED64
:104CD0001B0AB4EEE00AF1EE10FA31D8006FC117EA
:104CE000019000EB917081106B48806F90FBF1F0A8
:104CF00000EE100AB8EEC00A8DED030A6648006F98
:104D00008000C117019000EB9170801000EE100A36
:104D1000F8EEC00A9DED030A20EE800AF7EE000AC5
:104D200020EE600A8DED020A5B4890ED1B1ADDED66
:104D3000030A9DED020A01EE200A80ED1D0A00BF64
:104D40005548D0F880008000C117039000EB9170A7
:104D5000801000EE100AB8EEC00A4F48D0ED1F0ACE
:104D6000B4EEE00AF1EE10FA08D81FEDB50A80EDB6
:104D70001F0A1FEDB70A80ED210AFFE0464890EDBB
:104D80001F0AB5EEC00AF1EE10FA0AD290ED200A21
:104D9000B8EEC00A80ED1F0A1FEDC10A80ED210A9E
:104DA000ECE03D48D0F88000C117039000EB917013
:104DB000801000EE100AB8EEC00A3748D0ED1F0A86
:104DC000B4EEE00AF1EE10FA1BDBD0F88000C11758
:104DD000029000EB917081102F48D0F8880090FB72
:104DE000F1F000EE100AB8EEC00A8DED030A2A4871
:104DF000D0ED1F0A9DED030A20EE800A80ED210A06
:104E0000BCE02548D0F88000C117029000EB9170FB
:104E1000801000EE100AB8EEC00A1F48D0ED1F0A3D
:104E2000B4EEE00AF1EE10FA5DD2D0F8800000EBAB
:104E30004000C117039000EB9170801000EE100A43
:104E4000B8EEC00A1448D0ED1F0AB4EEE00AF1EE45
:104E500010FA48DDD0F8800000EB4000C117009048
:104E600000EB917081100C48D0F88000C2170190BF
:104E700000EB9270A1EBA0010748D0F888004242F5
:104E80000548D0F88800101A90FBF1F000EE100AE7
:104E9000B8EEC00A02E00000AC5000208DED030A1D
:104EA0005848D0F880004000C117019000EB917085
:104EB000801000EE100AF8EEC00A9DED030A20EE05
:104EC000800AF7EE000A20EE600A8DED020A4D48D6
:104ED00090ED1F1ADDED030A9DED020A01EE200A96
:104EE00080ED210A4AE04748D0F8800000EB4000FE
:104EF000C117039000EB9170801000EE100AB8EE1D
:104F0000C00A4048D0ED1F0AB4EEE00AF1EE10FAF4
:104F100034D8D0F88000C117019000EB9170811057
:104F20003848D0F8880090FBF1F000EE100AB8EE97
:104F3000C00A8DED030A3348D0F880008000C11705
:104F4000019000EB9170801000EE100AF8EEC00A9C
:104F50009DED030A20EE800AF7EE000A20EE600ABB
:104F60008DED020A274890ED1F1ADDED030A9DED35
:104F7000020A01EE200A80ED210A00BF2148D0ED8F
:104F8000000A9DED040A30EE800A80ED000AD0EDA3
:104F9000040A9DED040A30EE800A80ED040AD0ED8B
:104FA000090A9DED040A30EE800A80ED090AD0ED71
:104FB0000D0A9DED040A30EE800A80ED0D0AD0ED59
:104FC000120A9DED040A30EE800A80ED120AD0ED3F
:104FD000160A9DED040A30EE800A80ED160AD0ED27
:104FE0001B0A9DED040A30EE800A80ED1B0AD0ED0D
:104FF0001F0A9DED040A30EE800A80ED1F0A06B0FC
:1050000070470000AC50002010B51148006801281E
:105010001BD1104800780F2805D10E48007E10B92A
:105020000C4802F0B3FA002003E00021094A1154B1
:10503000401C1928F9DB00200549086019220549A0
:105040000548FEF729FD002010BD4FF0FF30FBE7BB
:105050001C000020E8000020D405002008B50E4800
:1050600000680068C0F3001090B100BF00200090FD
:105070000948006800680090074800684068009090
:1050800000BF00BF0448FEF747FA0120034908604B
:10509000FFF7BAFF08BD0000D40500201C00002067
:1050A00000BF0A2001F0B2FAFBE7000092B000BF97
:1050B000A848006801287DD12022A74908A8FBF74D
:1050C00012F9A54890F820008DF84000A248406AE7
:1050D00011901C220BA96846FBF705F99F48D0EDFB
:1050E000010AB0EE600A07209FED9D2ADFED9D1AB0
:1050F000B1EE0E1ADFED9A0A08A90EC9FBF7FCFD06
:10510000012001F083FA2022934908A8FBF7EBF86D
:10511000914890F820008DF840008F48406A119027
:105120001C220BA96846FBF7DEF88C48D0ED000A7C
:10513000B0EE600A05209FED8A2ADFED8A1AB1EEF3
:105140000E1ADFED870A08A90EC9FBF7D5FD01206D
:1051500001F05CFA2022804908A8FBF7C4F87E48D9
:1051600090F820008DF840007B48406A11901C2286
:105170000BA96846FBF7B7F87848D0ED030AB0EE04
:10518000600A06209FED762ADFED761AB1EE0E1A40
:10519000DFED730A08A90EC9FBF7AEFD012001F08F
:1051A00035FA2022704908A8FBF79DF86E4890F860
:1051B000200000E0BAE08DF840006B48406A119092
:1051C0001C220BA96846FBF78EF86448D0ED020A52
:1051D000B0EE600A04209FED622ADFED621AB1EEA4
:1051E0000E1ADFED5F0A08A90EC9FBF785FD012045
:1051F00001F00CFA20225C4908A8FBF774F85A4821
:1052000090F820008DF840005748406A11901C2209
:105210000BA96846FBF767F85048D0ED070AB0EED7
:10522000600A01209FED4E2ADFED4E1AB1EE0E1AF4
:10523000DFED4B0A08A90EC9FBF75EFD012001F066
:10524000E5F92022484908A8FBF74DF8464890F8B0
:1052500020008DF840004448406A11901C220BA9A0
:105260006846FBF740F83D48D0ED060AB0EE600A0C
:1052700002209FED3B2ADFED3B1AB1EE0E1ADFED67
:10528000380A08A90EC9FBF737FD012001F0BEF965
:105290002022314908A8FBF726F82F4890F8200073
:1052A0008DF840002C48406A11901C220BA96846DA
:1052B000FBF719F82948D0ED050AB0EE600A08207E
:1052C0009FED272ADFED271AB1EE0E1ADFED240A33
:1052D00008A90EC9FBF710FD012001F097F9202263
:1052E000214908A8FAF7FFFF1F4890F820008DF821
:1052F00040001D48406A11901C220BA96846FAF72D
:10530000F2FF1648D0ED040AB0EE600A03209FEDCC
:10531000142ADFED141AB1EE0E1ADFED110A08A9F6
:105320000EC9FBF7E9FC012001F070F90F48006895
:105330000A2805D100200D490860FCF71DF804E09B
:105340000A480068401C094908600A2001F05EF91B
:10535000AEE6000014000020AC0500206C510020D7
:1053600000000000CDCC4C3E840500202000002031
:1053700000BFFBF7BFFA1B4890ED020A1A4880ED08
:10538000000A184890ED060A174880ED010A1548F2
:1053900090ED0B0A144880ED020A124890ED0F0AB6
:1053A000114880ED030A0F4890ED140A0E4880ED75
:1053B000040A0C4890ED180A0B4880ED050A0948CC
:1053C00090ED1D0A084880ED060A064890ED210A76
:1053D000054880ED070A0120044908600A2001F011
:1053E00015F9C6E7AC5000203C5100201400002005
:1053F0002DED048B00BF8D48C08EB0F5AF6F12DD70
:105400008B480068FBF71BF941EC190B9FED890BEA
:1054100053EC102BFBF732F841EC180BFBF752F969
:10542000864908601CE08148C08EB0F5967F12DA8C
:105430007F480068FBF703F941EC190B9FED800BE7
:1054400053EC102BFBF71AF841EC180BFBF73AF969
:105450007A49086004E09FED7C0A784880ED000AF4
:105460007248808E40F24C41884214DD774890EDBE
:10547000000ADFED770A20EE200A764880ED090A5F
:10548000724890ED000ADFED720A20EE200A7148A2
:1054900080ED080A18E06548808EB0F5487F13DA81
:1054A0006A4890ED000ADFED6C0A20EE200A694898
:1054B00080ED090A654890ED000ADFED670A20EEED
:1054C000200A644880ED080A5848408EB0F57A7F7B
:1054D00009DD9FED5F0A5F4880ED090A9FED5E0AD6
:1054E00080ED080A0DE05148408EB0F52F7F08DAB4
:1054F0009FED590A574880ED090A9FED550A80ED46
:10550000080A4A48408EB0F52F7F18DD4748408E84
:10551000B0F57A7F13DA4548808EB0F5487F0EDD0E
:105520004248808E40F24C41884208DA9FED460A9C
:10553000484880ED090A9FED440A80ED080A3B487F
:10554000408FC82809D1B3EE040A424880ED0A0A08
:10555000B3EE040A80ED0B0A26E03448408FB0F524
:105560007A7F09D19FED3D0A3A4880ED0A0A9FED06
:105570003B0A80ED0B0A17E02C48408FB0F5E16F35
:1055800009D19FED370A334880ED0A0A9FED340AAE
:1055900080ED0B0A08E09FED310A2E4880ED0A0AE3
:1055A0009FED2E0A80ED0B0A2048808FC8280AD173
:1055B000B7EE000A1E4880ED000AB7EE080A23483D
:1055C00080ED000A29E01948808FB0F57A7F0AD172
:1055D0009FED240A164880ED000AB7EE040A1B4826
:1055E00080ED000A19E01148808FB0F5E16F0AD113
:1055F0009FED1D0A0E4880ED000A9FED1C0A13481E
:1056000080ED000A09E0B7EE000A094880ED000AC3
:10561000B7EE000A0D4880ED000A084890ED000A38
:10562000FEF730FC012000F0F1FFE4E6D84F002047
:105630000C0000207B14AE47E17A843F000000207C
:105640007B14AE47E17A84BF000000001000002008
:105650000000F0423C5100200000F0C20000204257
:10566000000070429A99993F3333B33F7D3F553FD5
:1056700010B54FF0E020006902F052FF012801D080
:1056800002F09CFB10BD000000B593B0302107A8CC
:10569000FAF742FE142102A8FAF73EFE00BF0020EE
:1056A00001902448006840F0805022490860084674
:1056B000006800F08050019000BF00BF00BF0020D4
:1056C00001901D48006840F480401B49086008466E
:1056D000006800F48040019000BF00BF01200790E7
:1056E0000004089002200D9041050E9104210F91B5
:1056F000A8211091022111910421129107A8FDF710
:1057000057FB08B1FBF7A6FF0F2002900220039081
:10571000002004904FF4A05005904FF48050069064
:10572000052102A8FDF7E2F908B1FBF793FF13B0DA
:1057300000BD00004038024000700040034800688F
:1057400040F47000014908607047000088ED00E0F7
:1057500010B50248FDF705FE10BD0000BC06002094
:1057600010B50268294B98420ED0B0F1804F0BD093
:10577000274B984208D0274B984205D0264B984299
:1057800002D0264B984203D122F070024B681A4394
:105790001E4B984220D0B0F1804F1DD01C4B984238
:1057A0001AD01C4B984217D01B4B984214D01B4B5D
:1057B000984211D01A4B98420ED01A4B98420BD0F7
:1057C000194B984208D0194B984205D0184B984273
:1057D00002D0184B984203D122F44072CB681A438E
:1057E00022F080034C6943EA040202608B68C362C2
:1057F0000B688362054B984202D0084B984201D156
:105800000B6903630123436110BD000000000140E8
:105810000004004000080040000C0040000401406B
:105820000040014000440140004801400018004091
:10583000001C00400020004010B5FFF70FFC02489C
:10584000FDF7B0FE10BD0000D405002070B5054680
:10585000AC6B0020E085E0842046FDF7A2FE70BD21
:1058600070B506460025B46B20684069C0F3C015CA
:1058700094F83D00212805D125B10020E084204680
:1058800000F0C4F820684069C0F3801594F83E0029
:10589000222805D125B10020E085204600F070F8CF
:1058A000206C40F0100020642046FDF77AFE70BDA9
:1058B00070B50546AC6B2868006800F4807000285D
:1058C00042D1E08500BF00BF21680C3151E8001FC4
:1058D00021F4807021680C3141E80002002AF3D1E4
:1058E00000BF00BF00BF2168143151E8001F21F044
:1058F00001002168143141E80002002AF3D100BF01
:1059000000BF00BF2168143151E8001F21F04000A2
:105910002168143141E80002002AF3D100BF2020A1
:1059200084F83E00206B01280ED100BF00BF216823
:105930000C3151E8001F21F0100021680C3141E8C2
:105940000002002AF3D100BF206B012804D1A18DF1
:105950002046FDF7E0FD02E02046FEF7BEF870BDF0
:1059600070B50546AC6B206B012805D1A08D4108B0
:105970002046FDF7D0FD02E02046FEF7AFF870BDEF
:1059800000BF00BF02680C3252E8002F22F4907171
:1059900002680C3242E80013002BF3D100BF00BFB5
:1059A00000BF0268143252E8002F22F001010268A1
:1059B000143242E80013002BF3D100BF016B012920
:1059C0000ED100BF00BF02680C3252E8002F22F057
:1059D000100102680C3242E80013002BF3D100BF23
:1059E000202180F83E1000210163704710B5044665
:1059F0002068C06820F040002168C860202084F83A
:105A00003D002046FEF76BF8002010BD00BF00BF30
:105A100002680C3252E8002F22F0C00102680C32FA
:105A200042E80013002BF3D100BF202180F83D1085
:105A30007047F8B5044694F83E00222873D1A06858
:105A4000B0F5805F0CD1206950B90025A66A2068A6
:105A50004068C0F308003080A06A801CA06215E096
:105A6000A56A0026A068B0F5805F03D0A06828B9B9
:105A7000206918B920684068287004E020684068F0
:105A800000F07F002870A06A401CA062E08D401EDC
:105A900080B2E085002844D12068C06820F0200052
:105AA0002168C8602068C06820F480702168C860E0
:105AB0002068406920F0010021684861202084F8B6
:105AC0003E00206B012826D10020206300BF00BFCC
:105AD00021680C3151E8001F21F0100021680C31C1
